{
  "abi": [
    {
      "inputs": [
        {
          "internalType": "address",
          "name": "_token",
          "type": "address"
        },
        {
          "internalType": "string",
          "name": "_name",
          "type": "string"
        },
        {
          "internalType": "string",
          "name": "_symbol",
          "type": "string"
        },
        {
          "internalType": "uint256",
          "name": "_tvlCap",
          "type": "uint256"
        },
        {
          "internalType": "address",
          "name": "_treasury",
          "type": "address"
        },
        {
          "internalType": "address[]",
          "name": "_strategists",
          "type": "address[]"
        },
        {
          "internalType": "address[]",
          "name": "_multisigRoles",
          "type": "address[]"
        }
      ],
      "stateMutability": "nonpayable",
      "type": "constructor"
    },
    {
      "anonymous": false,
      "inputs": [
        {
          "indexed": true,
          "internalType": "address",
          "name": "owner",
          "type": "address"
        },
        {
          "indexed": true,
          "internalType": "address",
          "name": "spender",
          "type": "address"
        },
        {
          "indexed": false,
          "internalType": "uint256",
          "name": "value",
          "type": "uint256"
        }
      ],
      "name": "Approval",
      "type": "event"
    },
    {
      "anonymous": false,
      "inputs": [
        {
          "indexed": true,
          "internalType": "address",
          "name": "sender",
          "type": "address"
        },
        {
          "indexed": true,
          "internalType": "address",
          "name": "owner",
          "type": "address"
        },
        {
          "indexed": false,
          "internalType": "uint256",
          "name": "assets",
          "type": "uint256"
        },
        {
          "indexed": false,
          "internalType": "uint256",
          "name": "shares",
          "type": "uint256"
        }
      ],
      "name": "Deposit",
      "type": "event"
    },
    {
      "anonymous": false,
      "inputs": [
        {
          "indexed": false,
          "internalType": "bool",
          "name": "active",
          "type": "bool"
        }
      ],
      "name": "EmergencyShutdown",
      "type": "event"
    },
    {
      "anonymous": false,
      "inputs": [
        {
          "indexed": false,
          "internalType": "address",
          "name": "token",
          "type": "address"
        },
        {
          "indexed": false,
          "internalType": "uint256",
          "name": "amount",
          "type": "uint256"
        }
      ],
      "name": "InCaseTokensGetStuckCalled",
      "type": "event"
    },
    {
      "anonymous": false,
      "inputs": [
        {
          "indexed": false,
          "internalType": "uint256",
          "name": "degradation",
          "type": "uint256"
        }
      ],
      "name": "LockedProfitDegradationUpdated",
      "type": "event"
    },
    {
      "anonymous": false,
      "inputs": [
        {
          "indexed": true,
          "internalType": "bytes32",
          "name": "role",
          "type": "bytes32"
        },
        {
          "indexed": true,
          "internalType": "bytes32",
          "name": "previousAdminRole",
          "type": "bytes32"
        },
        {
          "indexed": true,
          "internalType": "bytes32",
          "name": "newAdminRole",
          "type": "bytes32"
        }
      ],
      "name": "RoleAdminChanged",
      "type": "event"
    },
    {
      "anonymous": false,
      "inputs": [
        {
          "indexed": true,
          "internalType": "bytes32",
          "name": "role",
          "type": "bytes32"
        },
        {
          "indexed": true,
          "internalType": "address",
          "name": "account",
          "type": "address"
        },
        {
          "indexed": true,
          "internalType": "address",
          "name": "sender",
          "type": "address"
        }
      ],
      "name": "RoleGranted",
      "type": "event"
    },
    {
      "anonymous": false,
      "inputs": [
        {
          "indexed": true,
          "internalType": "bytes32",
          "name": "role",
          "type": "bytes32"
        },
        {
          "indexed": true,
          "internalType": "address",
          "name": "account",
          "type": "address"
        },
        {
          "indexed": true,
          "internalType": "address",
          "name": "sender",
          "type": "address"
        }
      ],
      "name": "RoleRevoked",
      "type": "event"
    },
    {
      "anonymous": false,
      "inputs": [
        {
          "indexed": true,
          "internalType": "address",
          "name": "strategy",
          "type": "address"
        },
        {
          "indexed": false,
          "internalType": "uint256",
          "name": "feeBPS",
          "type": "uint256"
        },
        {
          "indexed": false,
          "internalType": "uint256",
          "name": "allocBPS",
          "type": "uint256"
        }
      ],
      "name": "StrategyAdded",
      "type": "event"
    },
    {
      "anonymous": false,
      "inputs": [
        {
          "indexed": true,
          "internalType": "address",
          "name": "strategy",
          "type": "address"
        },
        {
          "indexed": false,
          "internalType": "uint256",
          "name": "allocBPS",
          "type": "uint256"
        }
      ],
      "name": "StrategyAllocBPSUpdated",
      "type": "event"
    },
    {
      "anonymous": false,
      "inputs": [
        {
          "indexed": true,
          "internalType": "address",
          "name": "strategy",
          "type": "address"
        },
        {
          "indexed": false,
          "internalType": "uint256",
          "name": "feeBPS",
          "type": "uint256"
        }
      ],
      "name": "StrategyFeeBPSUpdated",
      "type": "event"
    },
    {
      "anonymous": false,
      "inputs": [
        {
          "indexed": true,
          "internalType": "address",
          "name": "strategy",
          "type": "address"
        },
        {
          "indexed": false,
          "internalType": "uint256",
          "name": "gain",
          "type": "uint256"
        },
        {
          "indexed": false,
          "internalType": "uint256",
          "name": "loss",
          "type": "uint256"
        },
        {
          "indexed": false,
          "internalType": "uint256",
          "name": "debtPaid",
          "type": "uint256"
        },
        {
          "indexed": false,
          "internalType": "uint256",
          "name": "gains",
          "type": "uint256"
        },
        {
          "indexed": false,
          "internalType": "uint256",
          "name": "losses",
          "type": "uint256"
        },
        {
          "indexed": false,
          "internalType": "uint256",
          "name": "allocated",
          "type": "uint256"
        },
        {
          "indexed": false,
          "internalType": "uint256",
          "name": "allocationAdded",
          "type": "uint256"
        },
        {
          "indexed": false,
          "internalType": "uint256",
          "name": "allocBPS",
          "type": "uint256"
        }
      ],
      "name": "StrategyReported",
      "type": "event"
    },
    {
      "anonymous": false,
      "inputs": [
        {
          "indexed": true,
          "internalType": "address",
          "name": "strategy",
          "type": "address"
        }
      ],
      "name": "StrategyRevoked",
      "type": "event"
    },
    {
      "anonymous": false,
      "inputs": [
        {
          "indexed": true,
          "internalType": "address",
          "name": "from",
          "type": "address"
        },
        {
          "indexed": true,
          "internalType": "address",
          "name": "to",
          "type": "address"
        },
        {
          "indexed": false,
          "internalType": "uint256",
          "name": "value",
          "type": "uint256"
        }
      ],
      "name": "Transfer",
      "type": "event"
    },
    {
      "anonymous": false,
      "inputs": [
        {
          "indexed": false,
          "internalType": "uint256",
          "name": "newTvlCap",
          "type": "uint256"
        }
      ],
      "name": "TvlCapUpdated",
      "type": "event"
    },
    {
      "anonymous": false,
      "inputs": [
        {
          "indexed": false,
          "internalType": "address[]",
          "name": "withdrawalQueue",
          "type": "address[]"
        }
      ],
      "name": "UpdateWithdrawalQueue",
      "type": "event"
    },
    {
      "anonymous": false,
      "inputs": [
        {
          "indexed": true,
          "internalType": "address",
          "name": "sender",
          "type": "address"
        },
        {
          "indexed": true,
          "internalType": "address",
          "name": "receiver",
          "type": "address"
        },
        {
          "indexed": true,
          "internalType": "address",
          "name": "owner",
          "type": "address"
        },
        {
          "indexed": false,
          "internalType": "uint256",
          "name": "assets",
          "type": "uint256"
        },
        {
          "indexed": false,
          "internalType": "uint256",
          "name": "shares",
          "type": "uint256"
        }
      ],
      "name": "Withdraw",
      "type": "event"
    },
    {
      "anonymous": false,
      "inputs": [
        {
          "indexed": false,
          "internalType": "uint256",
          "name": "withdrawMaxLoss",
          "type": "uint256"
        }
      ],
      "name": "WithdrawMaxLossUpdated",
      "type": "event"
    },
    {
      "inputs": [],
      "name": "ADMIN",
      "outputs": [
        {
          "internalType": "bytes32",
          "name": "",
          "type": "bytes32"
        }
      ],
      "stateMutability": "view",
      "type": "function"
    },
    {
      "inputs": [],
      "name": "DEFAULT_ADMIN_ROLE",
      "outputs": [
        {
          "internalType": "bytes32",
          "name": "",
          "type": "bytes32"
        }
      ],
      "stateMutability": "view",
      "type": "function"
    },
    {
      "inputs": [],
      "name": "DEGRADATION_COEFFICIENT",
      "outputs": [
        {
          "internalType": "uint256",
          "name": "",
          "type": "uint256"
        }
      ],
      "stateMutability": "view",
      "type": "function"
    },
    {
      "inputs": [],
      "name": "GUARDIAN",
      "outputs": [
        {
          "internalType": "bytes32",
          "name": "",
          "type": "bytes32"
        }
      ],
      "stateMutability": "view",
      "type": "function"
    },
    {
      "inputs": [],
      "name": "PERCENT_DIVISOR",
      "outputs": [
        {
          "internalType": "uint256",
          "name": "",
          "type": "uint256"
        }
      ],
      "stateMutability": "view",
      "type": "function"
    },
    {
      "inputs": [],
      "name": "STRATEGIST",
      "outputs": [
        {
          "internalType": "bytes32",
          "name": "",
          "type": "bytes32"
        }
      ],
      "stateMutability": "view",
      "type": "function"
    },
    {
      "inputs": [
        {
          "internalType": "address",
          "name": "_strategy",
          "type": "address"
        },
        {
          "internalType": "uint256",
          "name": "_feeBPS",
          "type": "uint256"
        },
        {
          "internalType": "uint256",
          "name": "_allocBPS",
          "type": "uint256"
        }
      ],
      "name": "addStrategy",
      "outputs": [],
      "stateMutability": "nonpayable",
      "type": "function"
    },
    {
      "inputs": [
        {
          "internalType": "address",
          "name": "owner",
          "type": "address"
        },
        {
          "internalType": "address",
          "name": "spender",
          "type": "address"
        }
      ],
      "name": "allowance",
      "outputs": [
        {
          "internalType": "uint256",
          "name": "",
          "type": "uint256"
        }
      ],
      "stateMutability": "view",
      "type": "function"
    },
    {
      "inputs": [
        {
          "internalType": "address",
          "name": "spender",
          "type": "address"
        },
        {
          "internalType": "uint256",
          "name": "amount",
          "type": "uint256"
        }
      ],
      "name": "approve",
      "outputs": [
        {
          "internalType": "bool",
          "name": "",
          "type": "bool"
        }
      ],
      "stateMutability": "nonpayable",
      "type": "function"
    },
    {
      "inputs": [],
      "name": "availableCapital",
      "outputs": [
        {
          "internalType": "int256",
          "name": "",
          "type": "int256"
        }
      ],
      "stateMutability": "view",
      "type": "function"
    },
    {
      "inputs": [],
      "name": "balance",
      "outputs": [
        {
          "internalType": "uint256",
          "name": "",
          "type": "uint256"
        }
      ],
      "stateMutability": "view",
      "type": "function"
    },
    {
      "inputs": [
        {
          "internalType": "address",
          "name": "account",
          "type": "address"
        }
      ],
      "name": "balanceOf",
      "outputs": [
        {
          "internalType": "uint256",
          "name": "",
          "type": "uint256"
        }
      ],
      "stateMutability": "view",
      "type": "function"
    },
    {
      "inputs": [],
      "name": "constructionTime",
      "outputs": [
        {
          "internalType": "uint256",
          "name": "",
          "type": "uint256"
        }
      ],
      "stateMutability": "view",
      "type": "function"
    },
    {
      "inputs": [],
      "name": "decimals",
      "outputs": [
        {
          "internalType": "uint8",
          "name": "",
          "type": "uint8"
        }
      ],
      "stateMutability": "view",
      "type": "function"
    },
    {
      "inputs": [
        {
          "internalType": "address",
          "name": "spender",
          "type": "address"
        },
        {
          "internalType": "uint256",
          "name": "subtractedValue",
          "type": "uint256"
        }
      ],
      "name": "decreaseAllowance",
      "outputs": [
        {
          "internalType": "bool",
          "name": "",
          "type": "bool"
        }
      ],
      "stateMutability": "nonpayable",
      "type": "function"
    },
    {
      "inputs": [
        {
          "internalType": "uint256",
          "name": "_amount",
          "type": "uint256"
        }
      ],
      "name": "deposit",
      "outputs": [],
      "stateMutability": "nonpayable",
      "type": "function"
    },
    {
      "inputs": [],
      "name": "depositAll",
      "outputs": [],
      "stateMutability": "nonpayable",
      "type": "function"
    },
    {
      "inputs": [],
      "name": "emergencyShutdown",
      "outputs": [
        {
          "internalType": "bool",
          "name": "",
          "type": "bool"
        }
      ],
      "stateMutability": "view",
      "type": "function"
    },
    {
      "inputs": [],
      "name": "getPricePerFullShare",
      "outputs": [
        {
          "internalType": "uint256",
          "name": "",
          "type": "uint256"
        }
      ],
      "stateMutability": "view",
      "type": "function"
    },
    {
      "inputs": [
        {
          "internalType": "bytes32",
          "name": "role",
          "type": "bytes32"
        }
      ],
      "name": "getRoleAdmin",
      "outputs": [
        {
          "internalType": "bytes32",
          "name": "",
          "type": "bytes32"
        }
      ],
      "stateMutability": "view",
      "type": "function"
    },
    {
      "inputs": [
        {
          "internalType": "bytes32",
          "name": "role",
          "type": "bytes32"
        },
        {
          "internalType": "uint256",
          "name": "index",
          "type": "uint256"
        }
      ],
      "name": "getRoleMember",
      "outputs": [
        {
          "internalType": "address",
          "name": "",
          "type": "address"
        }
      ],
      "stateMutability": "view",
      "type": "function"
    },
    {
      "inputs": [
        {
          "internalType": "bytes32",
          "name": "role",
          "type": "bytes32"
        }
      ],
      "name": "getRoleMemberCount",
      "outputs": [
        {
          "internalType": "uint256",
          "name": "",
          "type": "uint256"
        }
      ],
      "stateMutability": "view",
      "type": "function"
    },
    {
      "inputs": [
        {
          "internalType": "bytes32",
          "name": "role",
          "type": "bytes32"
        },
        {
          "internalType": "address",
          "name": "account",
          "type": "address"
        }
      ],
      "name": "grantRole",
      "outputs": [],
      "stateMutability": "nonpayable",
      "type": "function"
    },
    {
      "inputs": [
        {
          "internalType": "bytes32",
          "name": "role",
          "type": "bytes32"
        },
        {
          "internalType": "address",
          "name": "account",
          "type": "address"
        }
      ],
      "name": "hasRole",
      "outputs": [
        {
          "internalType": "bool",
          "name": "",
          "type": "bool"
        }
      ],
      "stateMutability": "view",
      "type": "function"
    },
    {
      "inputs": [
        {
          "internalType": "address",
          "name": "_token",
          "type": "address"
        }
      ],
      "name": "inCaseTokensGetStuck",
      "outputs": [],
      "stateMutability": "nonpayable",
      "type": "function"
    },
    {
      "inputs": [
        {
          "internalType": "address",
          "name": "spender",
          "type": "address"
        },
        {
          "internalType": "uint256",
          "name": "addedValue",
          "type": "uint256"
        }
      ],
      "name": "increaseAllowance",
      "outputs": [
        {
          "internalType": "bool",
          "name": "",
          "type": "bool"
        }
      ],
      "stateMutability": "nonpayable",
      "type": "function"
    },
    {
      "inputs": [],
      "name": "lastReport",
      "outputs": [
        {
          "internalType": "uint256",
          "name": "",
          "type": "uint256"
        }
      ],
      "stateMutability": "view",
      "type": "function"
    },
    {
      "inputs": [],
      "name": "lockedProfit",
      "outputs": [
        {
          "internalType": "uint256",
          "name": "",
          "type": "uint256"
        }
      ],
      "stateMutability": "view",
      "type": "function"
    },
    {
      "inputs": [],
      "name": "lockedProfitDegradation",
      "outputs": [
        {
          "internalType": "uint256",
          "name": "",
          "type": "uint256"
        }
      ],
      "stateMutability": "view",
      "type": "function"
    },
    {
      "inputs": [],
      "name": "name",
      "outputs": [
        {
          "internalType": "string",
          "name": "",
          "type": "string"
        }
      ],
      "stateMutability": "view",
      "type": "function"
    },
    {
      "inputs": [],
      "name": "removeTvlCap",
      "outputs": [],
      "stateMutability": "nonpayable",
      "type": "function"
    },
    {
      "inputs": [
        {
          "internalType": "bytes32",
          "name": "role",
          "type": "bytes32"
        },
        {
          "internalType": "address",
          "name": "account",
          "type": "address"
        }
      ],
      "name": "renounceRole",
      "outputs": [],
      "stateMutability": "nonpayable",
      "type": "function"
    },
    {
      "inputs": [
        {
          "internalType": "int256",
          "name": "_roi",
          "type": "int256"
        },
        {
          "internalType": "uint256",
          "name": "_repayment",
          "type": "uint256"
        }
      ],
      "name": "report",
      "outputs": [
        {
          "internalType": "uint256",
          "name": "",
          "type": "uint256"
        }
      ],
      "stateMutability": "nonpayable",
      "type": "function"
    },
    {
      "inputs": [
        {
          "internalType": "bytes32",
          "name": "role",
          "type": "bytes32"
        },
        {
          "internalType": "address",
          "name": "account",
          "type": "address"
        }
      ],
      "name": "revokeRole",
      "outputs": [],
      "stateMutability": "nonpayable",
      "type": "function"
    },
    {
      "inputs": [
        {
          "internalType": "address",
          "name": "_strategy",
          "type": "address"
        }
      ],
      "name": "revokeStrategy",
      "outputs": [],
      "stateMutability": "nonpayable",
      "type": "function"
    },
    {
      "inputs": [
        {
          "internalType": "bool",
          "name": "_active",
          "type": "bool"
        }
      ],
      "name": "setEmergencyShutdown",
      "outputs": [],
      "stateMutability": "nonpayable",
      "type": "function"
    },
    {
      "inputs": [
        {
          "internalType": "uint256",
          "name": "degradation",
          "type": "uint256"
        }
      ],
      "name": "setLockedProfitDegradation",
      "outputs": [],
      "stateMutability": "nonpayable",
      "type": "function"
    },
    {
      "inputs": [
        {
          "internalType": "address[]",
          "name": "_withdrawalQueue",
          "type": "address[]"
        }
      ],
      "name": "setWithdrawalQueue",
      "outputs": [],
      "stateMutability": "nonpayable",
      "type": "function"
    },
    {
      "inputs": [
        {
          "internalType": "address",
          "name": "",
          "type": "address"
        }
      ],
      "name": "strategies",
      "outputs": [
        {
          "internalType": "uint256",
          "name": "activation",
          "type": "uint256"
        },
        {
          "internalType": "uint256",
          "name": "feeBPS",
          "type": "uint256"
        },
        {
          "internalType": "uint256",
          "name": "allocBPS",
          "type": "uint256"
        },
        {
          "internalType": "uint256",
          "name": "allocated",
          "type": "uint256"
        },
        {
          "internalType": "uint256",
          "name": "gains",
          "type": "uint256"
        },
        {
          "internalType": "uint256",
          "name": "losses",
          "type": "uint256"
        },
        {
          "internalType": "uint256",
          "name": "lastReport",
          "type": "uint256"
        }
      ],
      "stateMutability": "view",
      "type": "function"
    },
    {
      "inputs": [
        {
          "internalType": "bytes4",
          "name": "interfaceId",
          "type": "bytes4"
        }
      ],
      "name": "supportsInterface",
      "outputs": [
        {
          "internalType": "bool",
          "name": "",
          "type": "bool"
        }
      ],
      "stateMutability": "view",
      "type": "function"
    },
    {
      "inputs": [],
      "name": "symbol",
      "outputs": [
        {
          "internalType": "string",
          "name": "",
          "type": "string"
        }
      ],
      "stateMutability": "view",
      "type": "function"
    },
    {
      "inputs": [],
      "name": "token",
      "outputs": [
        {
          "internalType": "contract IERC20Metadata",
          "name": "",
          "type": "address"
        }
      ],
      "stateMutability": "view",
      "type": "function"
    },
    {
      "inputs": [],
      "name": "totalAllocBPS",
      "outputs": [
        {
          "internalType": "uint256",
          "name": "",
          "type": "uint256"
        }
      ],
      "stateMutability": "view",
      "type": "function"
    },
    {
      "inputs": [],
      "name": "totalAllocated",
      "outputs": [
        {
          "internalType": "uint256",
          "name": "",
          "type": "uint256"
        }
      ],
      "stateMutability": "view",
      "type": "function"
    },
    {
      "inputs": [],
      "name": "totalIdle",
      "outputs": [
        {
          "internalType": "uint256",
          "name": "",
          "type": "uint256"
        }
      ],
      "stateMutability": "view",
      "type": "function"
    },
    {
      "inputs": [],
      "name": "totalSupply",
      "outputs": [
        {
          "internalType": "uint256",
          "name": "",
          "type": "uint256"
        }
      ],
      "stateMutability": "view",
      "type": "function"
    },
    {
      "inputs": [
        {
          "internalType": "address",
          "name": "to",
          "type": "address"
        },
        {
          "internalType": "uint256",
          "name": "amount",
          "type": "uint256"
        }
      ],
      "name": "transfer",
      "outputs": [
        {
          "internalType": "bool",
          "name": "",
          "type": "bool"
        }
      ],
      "stateMutability": "nonpayable",
      "type": "function"
    },
    {
      "inputs": [
        {
          "internalType": "address",
          "name": "from",
          "type": "address"
        },
        {
          "internalType": "address",
          "name": "to",
          "type": "address"
        },
        {
          "internalType": "uint256",
          "name": "amount",
          "type": "uint256"
        }
      ],
      "name": "transferFrom",
      "outputs": [
        {
          "internalType": "bool",
          "name": "",
          "type": "bool"
        }
      ],
      "stateMutability": "nonpayable",
      "type": "function"
    },
    {
      "inputs": [],
      "name": "treasury",
      "outputs": [
        {
          "internalType": "address",
          "name": "",
          "type": "address"
        }
      ],
      "stateMutability": "view",
      "type": "function"
    },
    {
      "inputs": [],
      "name": "tvlCap",
      "outputs": [
        {
          "internalType": "uint256",
          "name": "",
          "type": "uint256"
        }
      ],
      "stateMutability": "view",
      "type": "function"
    },
    {
      "inputs": [
        {
          "internalType": "address",
          "name": "_strategy",
          "type": "address"
        },
        {
          "internalType": "uint256",
          "name": "_allocBPS",
          "type": "uint256"
        }
      ],
      "name": "updateStrategyAllocBPS",
      "outputs": [],
      "stateMutability": "nonpayable",
      "type": "function"
    },
    {
      "inputs": [
        {
          "internalType": "address",
          "name": "_strategy",
          "type": "address"
        },
        {
          "internalType": "uint256",
          "name": "_feeBPS",
          "type": "uint256"
        }
      ],
      "name": "updateStrategyFeeBPS",
      "outputs": [],
      "stateMutability": "nonpayable",
      "type": "function"
    },
    {
      "inputs": [
        {
          "internalType": "address",
          "name": "newTreasury",
          "type": "address"
        }
      ],
      "name": "updateTreasury",
      "outputs": [],
      "stateMutability": "nonpayable",
      "type": "function"
    },
    {
      "inputs": [
        {
          "internalType": "uint256",
          "name": "_newTvlCap",
          "type": "uint256"
        }
      ],
      "name": "updateTvlCap",
      "outputs": [],
      "stateMutability": "nonpayable",
      "type": "function"
    },
    {
      "inputs": [
        {
          "internalType": "uint256",
          "name": "_withdrawMaxLoss",
          "type": "uint256"
        }
      ],
      "name": "updateWithdrawMaxLoss",
      "outputs": [],
      "stateMutability": "nonpayable",
      "type": "function"
    },
    {
      "inputs": [
        {
          "internalType": "uint256",
          "name": "_shares",
          "type": "uint256"
        }
      ],
      "name": "withdraw",
      "outputs": [],
      "stateMutability": "nonpayable",
      "type": "function"
    },
    {
      "inputs": [],
      "name": "withdrawAll",
      "outputs": [],
      "stateMutability": "nonpayable",
      "type": "function"
    },
    {
      "inputs": [],
      "name": "withdrawMaxLoss",
      "outputs": [
        {
          "internalType": "uint256",
          "name": "",
          "type": "uint256"
        }
      ],
      "stateMutability": "view",
      "type": "function"
    },
    {
      "inputs": [
        {
          "internalType": "uint256",
          "name": "",
          "type": "uint256"
        }
      ],
      "name": "withdrawalQueue",
      "outputs": [
        {
          "internalType": "address",
          "name": "",
          "type": "address"
        }
      ],
      "stateMutability": "view",
      "type": "function"
    }
  ],
  "bytecode": {
    "object": "0x60c060405260016010553480156200001657600080fd5b506040516200472b3803806200472b833981016040819052620000399162000496565b858560036200004983826200060d565b5060046200005882826200060d565b50506001600755506001600160a01b0387811660a052426080819052600e55600a859055601380546001600160a01b031916918516919091179055620f4240620000ac670de0b6b3a7640000602e620006d9565b620000b89190620006ff565b601155815160005b818110156200012057620001177fb17d0a42cc710456bf9c3efb785dcd0cb93a0ac358113307b5c64b285b516b5c85838151811062000103576200010362000722565b6020026020010151620001d060201b60201c565b600101620000c0565b506200012e600033620001d0565b6200014c6000801b8360008151811062000103576200010362000722565b620001877fdf8b4c520ffe197c5343c6f5aec59570151ef9a492f2c624fd45ddde6135ec428360018151811062000103576200010362000722565b620001c27f8b5b16d04624687fcf0d0228f19993c9157c1ed07b41d8d430fd9100eb099fe88360028151811062000103576200010362000722565b505050505050505062000738565b620001dc8282620001fb565b6000828152600660205260409020620001f69082620002a0565b505050565b60008281526005602090815260408083206001600160a01b038516845290915290205460ff166200029c5760008281526005602090815260408083206001600160a01b03851684529091529020805460ff191660011790556200025b3390565b6001600160a01b0316816001600160a01b0316837f2f8788117e7eff1d82e926ec794901d17c78024a50270940304540a733656f0d60405160405180910390a45b5050565b6000620002b7836001600160a01b038416620002c0565b90505b92915050565b60008181526001830160205260408120546200030957508154600181810184556000848152602080822090930184905584548482528286019093526040902091909155620002ba565b506000620002ba565b80516001600160a01b03811681146200032a57600080fd5b919050565b634e487b7160e01b600052604160045260246000fd5b604051601f8201601f191681016001600160401b03811182821017156200037057620003706200032f565b604052919050565b600082601f8301126200038a57600080fd5b81516001600160401b03811115620003a657620003a66200032f565b6020620003bc601f8301601f1916820162000345565b8281528582848701011115620003d157600080fd5b60005b83811015620003f1578581018301518282018401528201620003d4565b506000928101909101919091529392505050565b600082601f8301126200041757600080fd5b815160206001600160401b038211156200043557620004356200032f565b8160051b6200044682820162000345565b92835284810182019282810190878511156200046157600080fd5b83870192505b848310156200048b576200047b8362000312565b8252918301919083019062000467565b979650505050505050565b600080600080600080600060e0888a031215620004b257600080fd5b620004bd8862000312565b60208901519097506001600160401b0380821115620004db57600080fd5b620004e98b838c0162000378565b975060408a01519150808211156200050057600080fd5b6200050e8b838c0162000378565b965060608a015195506200052560808b0162000312565b945060a08a01519150808211156200053c57600080fd5b6200054a8b838c0162000405565b935060c08a01519150808211156200056157600080fd5b50620005708a828b0162000405565b91505092959891949750929550565b600181811c908216806200059457607f821691505b602082108103620005b557634e487b7160e01b600052602260045260246000fd5b50919050565b601f821115620001f657600081815260208120601f850160051c81016020861015620005e45750805b601f850160051c820191505b818110156200060557828155600101620005f0565b505050505050565b81516001600160401b038111156200062957620006296200032f565b62000641816200063a84546200057f565b84620005bb565b602080601f831160018114620006795760008415620006605750858301515b600019600386901b1c1916600185901b17855562000605565b600085815260208120601f198616915b82811015620006aa5788860151825594840194600190910190840162000689565b5085821015620006c95787850151600019600388901b60f8161c191681555b5050505050600190811b01905550565b8082028115828204841417620002ba57634e487b7160e01b600052601160045260246000fd5b6000826200071d57634e487b7160e01b600052601260045260246000fd5b500490565b634e487b7160e01b600052603260045260246000fd5b60805160a051613f87620007a46000396000818161081c01528181610bf001528181610c800152818161106f01528181611a1601528181611b1501528181611e1b015281816128ac015281816129ba01528181612ba00152612e01015260006107e20152613f876000f3fe608060405234801561001057600080fd5b50600436106103985760003560e01c806370a08231116101e9578063ac579b771161010f578063d250f088116100ad578063def68a9c1161007c578063def68a9c146107ca578063f06c5610146107dd578063fa34d61114610804578063fc0c546a1461081757600080fd5b8063d250f0881461078d578063d547741f1461079c578063dd62ed3e146107af578063de5f6268146107c257600080fd5b8063bb994d48116100e9578063bb994d481461074b578063c3535b521461075e578063c822adda14610767578063ca15c8731461077a57600080fd5b8063ac579b771461071d578063b69ef8a814610730578063b6b55f251461073857600080fd5b80639010d07c116101875780639cfdede3116101565780639cfdede3146106da578063a217fddf146106ef578063a457c2d7146106f7578063a9059cbb1461070a57600080fd5b80639010d07c146106a357806391d14854146106b657806395d89b41146106c95780639aa7df94146106d157600080fd5b80637a550365116101c35780637a550365146106625780637d6205be146106755780637f51bb1f14610688578063853828b61461069b57600080fd5b806370a082311461061c578063724c184c1461064557806377c7b8fc1461065a57600080fd5b8063313ce567116102ce57806344b813961161026c5780634870dd9a1161023b5780634870dd9a146105cc5780635f3d3a0e146105d557806361d027b3146105e85780636f9c94a81461061357600080fd5b806344b813961461059e57806345f7f249146105a7578063462f82f4146105b0578063483b6031146105c357600080fd5b806339509351116102a857806339509351146104f957806339ebf8231461050c5780633f23fa1a1461058c578063422327161461059557600080fd5b8063313ce567146104bf5780633403c2fc146104d957806336568abe146104e657600080fd5b8063199cb7d81161033b57806329b9d6941161031557806329b9d6941461047c5780632a0acc6a146104845780632e1a7d4d146104995780632f2ff15d146104ac57600080fd5b8063199cb7d81461043e57806323b872dd14610446578063248a9ca31461045957600080fd5b8063095ea7b311610377578063095ea7b3146103ef5780630f3d249d1461040257806314c644021461042357806318160ddd1461043657600080fd5b8062272d811461039d57806301ffc9a7146103b257806306fdde03146103da575b600080fd5b6103b06103ab3660046138c0565b61083e565b005b6103c56103c03660046138d9565b610891565b60405190151581526020015b60405180910390f35b6103e26108bc565b6040516103d19190613927565b6103c56103fd36600461396f565b61094e565b61041561041036600461399b565b610966565b6040519081526020016103d1565b6103b06104313660046139cb565b610e37565b600254610415565b610415610eb1565b6103c56104543660046139e8565b610fff565b6104156104673660046138c0565b60009081526005602052604090206001015490565b6103b0611025565b610415600080516020613f1283398151915281565b6103b06104a73660046138c0565b611032565b6103b06104ba366004613a29565b611041565b6104c761106b565b60405160ff90911681526020016103d1565b600f546103c59060ff1681565b6103b06104f4366004613a29565b6110f4565b6103c561050736600461396f565b61116e565b61055761051a366004613a59565b6008602052600090815260409020805460018201546002830154600384015460048501546005860154600690960154949593949293919290919087565b604080519788526020880196909652948601939093526060850191909152608084015260a083015260c082015260e0016103d1565b610415600a5481565b61041560115481565b61041560125481565b610415600d5481565b6103b06105be3660046138c0565b611190565b61041560105481565b61041561271081565b6103b06105e336600461396f565b611222565b6013546105fb906001600160a01b031681565b6040516001600160a01b0390911681526020016103d1565b610415600c5481565b61041561062a366004613a59565b6001600160a01b031660009081526020819052604090205490565b610415600080516020613ef283398151915281565b61041561138a565b6103b06106703660046138c0565b6113df565b6103b061068336600461396f565b61148f565b6103b0610696366004613a59565b611595565b6103b0611609565b6105fb6106b136600461399b565b611626565b6103c56106c4366004613a29565b61163e565b6103e2611669565b610415600b5481565b610415600080516020613f3283398151915281565b610415600081565b6103c561070536600461396f565b611678565b6103c561071836600461396f565b6116fe565b6103b061072b366004613a76565b61170c565b610415611889565b6103b06107463660046138c0565b61189b565b6103b0610759366004613a59565b6118a5565b610415600e5481565b6105fb6107753660046138c0565b61196c565b6104156107883660046138c0565b611996565b610415670de0b6b3a764000081565b6103b06107aa366004613a29565b6119ad565b6104156107bd366004613aeb565b6119d2565b6103b06119fd565b6103b06107d8366004613a59565b611a8f565b6104157f000000000000000000000000000000000000000000000000000000000000000081565b6103b0610812366004613b19565b611bf4565b6105fb7f000000000000000000000000000000000000000000000000000000000000000081565b610855600080516020613f1283398151915261205a565b600a8190556040518181527f2923cecec41b7140eaf657a035af4abb23ed61d16b1fc20a986838eb3ad99bd0906020015b60405180910390a150565b60006001600160e01b03198216635a05180f60e01b14806108b657506108b682612131565b92915050565b6060600380546108cb90613b4e565b80601f01602080910402602001604051908101604052809291908181526020018280546108f790613b4e565b80156109445780601f1061091957610100808354040283529160200191610944565b820191906000526020600020905b81548152906001019060200180831161092757829003601f168201915b5050505050905090565b60003361095c818585612166565b5060019392505050565b60006109c760405180610140016040528060006001600160a01b031681526020016000815260200160008152602001600081526020016000815260200160008152602001600081526020016000815260200160008152602001600081525090565b3380825260009081526008602052604081208054909103610a275760405162461bcd60e51b8152602060048201526015602482015274556e617574686f72697a656420737472617465677960581b60448201526064015b60405180910390fd5b6000851215610a5057610a3985613b9e565b602083018190528251610a4b9161228a565b610a90565b6000851315610a9057604082018590528151610a6c90866123d1565b60608301526040820151600482018054600090610a8a908490613bba565b90915550505b610a98610eb1565b6080830181905260001315610b2a578160800151610ab590613b9e565b60a08301819052610ac69085612469565b60e0830181905215610b25578160e00151816003016000828254610aea9190613bcd565b909155505060e0820151600d8054600090610b06908490613bcd565b909155505060e082015160a083018051610b21908390613bcd565b9052505b610b79565b600082608001511315610b7957608082015160c08301819052600382018054600090610b57908490613bba565b909155505060c0820151600d8054600090610b73908490613bba565b90915550505b8160e001518260400151610b8d9190613bba565b610100830181905260c08301511115610c1c578161010001518260c00151610bb59190613bcd565b600b6000828254610bc69190613bcd565b9091555050815161010083015160c0840151610c179291610be691613bcd565b6001600160a01b037f000000000000000000000000000000000000000000000000000000000000000016919061247f565b610ca8565b8161010001518260c001511015610ca8578160c00151826101000151610c429190613bcd565b600b6000828254610c539190613bba565b9091555050815160c0830151610100840151610ca892913091610c769190613bcd565b6001600160a01b037f0000000000000000000000000000000000000000000000000000000000000000169291906124e2565b81606001518260400151610cba612520565b610cc49190613bba565b610cce9190613bcd565b610120830181905260208301511015610cfe578160200151826101200151610cf69190613bcd565b601255610d04565b60006012555b4260068201819055600e55815160408084015160208086015160e0808801516004880154600589015460038a015460c0808d015160028d01548b519a8b52988a0197909752888a01949094526060880192909252608087015260a086015284019190915282015290516001600160a01b03909216917f67f96d2854a335a4cadb49f84fd3ca6f990744ddb3feceeb4b349d2d53d32ad3918190036101000190a260028101541580610db75750600f5460ff165b15610e2b5781600001516001600160a01b031663722713f76040518163ffffffff1660e01b8152600401602060405180830381865afa158015610dfe573d6000803e3d6000fd5b505050506040513d601f19601f82011682018060405250810190610e229190613be0565b925050506108b6565b5060a001519392505050565b8015610e5957610e54600080516020613ef283398151915261205a565b610e70565b610e70600080516020613f1283398151915261205a565b600f805460ff19168215159081179091556040519081527fba40372a3a724dca3c57156128ef1e896724b65b37a17f190b1ad5de68f3a4f390602001610886565b600c5460009033901580610ec75750600f5460ff165b15610ef7576001600160a01b038116600090815260086020526040902060030154610ef190613b9e565b91505090565b6000612710610f04611889565b6001600160a01b038416600090815260086020526040902060020154610f2a9190613bf9565b610f349190613c10565b6001600160a01b03831660009081526008602052604090206003015490915081811115610f7657610f658282613bcd565b610f6e90613b9e565b935050505090565b81811015610ff5576000612710610f8b611889565b600c54610f989190613bf9565b610fa29190613c10565b600d54909150818110610fbb5760009550505050505090565b6000610fc78486613bcd565b9050610fdc81610fd78486613bcd565b612469565b9050610fea81600b54612469565b979650505050505050565b6000935050505090565b60003361100d858285612586565b6110188585856125fa565b60019150505b9392505050565b61103060001961083e565b565b61103d81333361279e565b5050565b60008281526005602052604090206001015461105c81612c1d565b6110668383612c27565b505050565b60007f00000000000000000000000000000000000000000000000000000000000000006001600160a01b031663313ce5676040518163ffffffff1660e01b8152600401602060405180830381865afa1580156110cb573d6000803e3d6000fd5b505050506040513d601f19601f820116820180604052508101906110ef9190613c32565b905090565b6001600160a01b03811633146111645760405162461bcd60e51b815260206004820152602f60248201527f416363657373436f6e74726f6c3a2063616e206f6e6c792072656e6f756e636560448201526e103937b632b9903337b91039b2b63360891b6064820152608401610a1e565b61103d8282612c49565b60003361095c81858561118183836119d2565b61118b9190613bba565b612166565b6111a7600080516020613f3283398151915261205a565b6127108111156111ed5760405162461bcd60e51b8152602060048201526011602482015270496e76616c6964204250532076616c756560781b6044820152606401610a1e565b60108190556040518181527f23e1382e62459214e4b3240fe95817b36865752f45f7569957018fe5a105f7b590602001610886565b6001600160a01b03821660009081526008602052604081205490036112595760405162461bcd60e51b8152600401610a1e90613c55565b6001600160a01b038216600090815260086020526040902060020154801561129757611292600080516020613f3283398151915261205a565b6112ae565b6112ae600080516020613f1283398151915261205a565b80600c60008282546112c09190613bcd565b90915550506001600160a01b0383166000908152600860205260408120600201839055600c80548492906112f5908490613bba565b9091555050600c5461271010156113425760405162461bcd60e51b8152602060048201526011602482015270496e76616c6964204250532076616c756560781b6044820152606401610a1e565b826001600160a01b03167f437afd93b1abdad7ff741b69dde7efdd15dba7fb6999ba3471db17fd029dced98360405161137d91815260200190565b60405180910390a2505050565b600061139560025490565b156113cc576002546113a561106b565b6113b090600a613d70565b6113b8612c6b565b6113c29190613bf9565b6110ef9190613c10565b6113d461106b565b6110ef90600a613d70565b6113f6600080516020613f1283398151915261205a565b670de0b6b3a764000081111561145a5760405162461bcd60e51b8152602060048201526024808201527f4465677261646174696f6e2063616e6e6f74206265206d6f7265207468616e206044820152633130302560e01b6064820152608401610a1e565b60118190556040518181527f056863905a721211fc4dda1d688efc8f120b4b689d2e41da8249cf6eff20069190602001610886565b6114a6600080516020613f1283398151915261205a565b6001600160a01b03821660009081526008602052604081205490036114dd5760405162461bcd60e51b8152600401610a1e90613c55565b6114ea6005612710613c10565b8111156115395760405162461bcd60e51b815260206004820181905260248201527f4665652063616e6e6f7420626520686967686572207468616e203230204250536044820152606401610a1e565b6001600160a01b03821660008181526008602052604090819020600101839055517f8281ff4064168f20aa9abde7f62b8b72efb10b48e7e838af54dcabff3131474a906115899084815260200190565b60405180910390a25050565b61159f600061205a565b6001600160a01b0381166115e75760405162461bcd60e51b815260206004820152600f60248201526e496e76616c6964206164647265737360881b6044820152606401610a1e565b601380546001600160a01b0319166001600160a01b0392909216919091179055565b33600081815260208190526040902054611623918061279e565b50565b600082815260066020526040812061101e9083612c87565b60009182526005602090815260408084206001600160a01b0393909316845291905290205460ff1690565b6060600480546108cb90613b4e565b6000338161168682866119d2565b9050838110156116e65760405162461bcd60e51b815260206004820152602560248201527f45524332303a2064656372656173656420616c6c6f77616e63652062656c6f77604482015264207a65726f60d81b6064820152608401610a1e565b6116f38286868403612166565b506001949350505050565b60003361095c8185856125fa565b611723600080516020613f1283398151915261205a565b8060008190036117755760405162461bcd60e51b815260206004820152601760248201527f5175657565206d757374206e6f7420626520656d7074790000000000000000006044820152606401610a1e565b6117816009600061388e565b60005b8181101561184a5760008484838181106117a0576117a0613d7f565b90506020020160208101906117b59190613a59565b6001600160a01b038116600090815260086020526040812080549293509190036117f15760405162461bcd60e51b8152600401610a1e90613c55565b5060098054600180820183556000929092527f6e1540171b6c0c960b71a7020d9f60077f6af931a8bbf590da0223dacf75c7af0180546001600160a01b0319166001600160a01b03939093169290921790915501611784565b507fe159a1b5cb3e0bbe2f0caa53bcf2cd9ea0bc25a8c7b8302b1ac510f29cac8baa838360405161187c929190613d95565b60405180910390a1505050565b6000600d54600b546110ef9190613bba565b61103d8133612c93565b336001600160a01b038216146118cc576118cc600080516020613ef283398151915261205a565b6001600160a01b03811660009081526008602052604081206002015490036118f15750565b6001600160a01b038116600090815260086020526040812060020154600c805491929091611920908490613bcd565b90915550506001600160a01b038116600081815260086020526040808220600201829055517f4201c688d84c01154d321afa0c72f1bffe9eef53005c9de9d035074e71e9b32a9190a250565b6009818154811061197c57600080fd5b6000918252602090912001546001600160a01b0316905081565b60008181526006602052604081206108b690612e7a565b6000828152600560205260409020600101546119c881612c1d565b6110668383612c49565b6001600160a01b03918216600090815260016020908152604080832093909416825291909152205490565b6040516370a0823160e01b8152336004820152611623907f00000000000000000000000000000000000000000000000000000000000000006001600160a01b0316906370a0823190602401602060405180830381865afa158015611a65573d6000803e3d6000fd5b505050506040513d601f19601f82011682018060405250810190611a899190613be0565b33612c93565b611aa6600080516020613f1283398151915261205a565b6040516370a0823160e01b81523060048201526000906001600160a01b038316906370a0823190602401602060405180830381865afa158015611aed573d6000803e3d6000fd5b505050506040513d601f19601f82011682018060405250810190611b119190613be0565b90507f00000000000000000000000000000000000000000000000000000000000000006001600160a01b0316826001600160a01b031603611b5c57600b54611b599082613bcd565b90505b80600003611b9a5760405162461bcd60e51b815260206004820152600b60248201526a16995c9bc8185b5bdd5b9d60aa1b6044820152606401610a1e565b611bae6001600160a01b038316338361247f565b604080516001600160a01b0384168152602081018390527f741ee845808813887c0b0d54aa20a3d0f670bebce7b6a1face577afbc00d1d6c910160405180910390a15050565b611bfe600061205a565b600f5460ff1615611c675760405162461bcd60e51b815260206004820152602d60248201527f43616e6e6f742061646420737472617465677920647572696e6720656d65726760448201526c32b731bc9039b43aba3237bbb760991b6064820152608401610a1e565b6001600160a01b038316611c8d5760405162461bcd60e51b8152600401610a1e90613c55565b6001600160a01b03831660009081526008602052604090205415611cec5760405162461bcd60e51b815260206004820152601660248201527514dd1c985d1959de48185b1c9958591e48185919195960521b6044820152606401610a1e565b826001600160a01b031663fbfa77cf6040518163ffffffff1660e01b8152600401602060405180830381865afa158015611d2a573d6000803e3d6000fd5b505050506040513d601f19601f82011682018060405250810190611d4e9190613de3565b6001600160a01b0316306001600160a01b031614611dae5760405162461bcd60e51b815260206004820152601f60248201527f53747261746567792773207661756c7420646f6573206e6f74206d61746368006044820152606401610a1e565b826001600160a01b0316631f1fcd516040518163ffffffff1660e01b8152600401602060405180830381865afa158015611dec573d6000803e3d6000fd5b505050506040513d601f19601f82011682018060405250810190611e109190613de3565b6001600160a01b03167f00000000000000000000000000000000000000000000000000000000000000006001600160a01b031614611e905760405162461bcd60e51b815260206004820152601e60248201527f537472617465677927732077616e7420646f6573206e6f74206d6174636800006044820152606401610a1e565b611e9d6005612710613c10565b821115611eec5760405162461bcd60e51b815260206004820181905260248201527f4665652063616e6e6f7420626520686967686572207468616e203230204250536044820152606401610a1e565b612710600c5482611efd9190613bba565b1115611f445760405162461bcd60e51b8152602060048201526016602482015275496e76616c696420616c6c6f634250532076616c756560501b6044820152606401610a1e565b6040805160e0810182524280825260208083018681528385018681526000606086018181526080870182815260a0880183815260c089019788526001600160a01b038d1684526008909652978220965187559251600187015590516002860155905160038501559351600484015551600583015551600690910155600c8054839290611fd1908490613bba565b9091555050600980546001810182556000919091527f6e1540171b6c0c960b71a7020d9f60077f6af931a8bbf590da0223dacf75c7af0180546001600160a01b0319166001600160a01b03851690811790915560408051848152602081018490527f45bb3eed5cd098efb0a286413fb1f3c11841762610cefbabae6a772963e916ba910161137d565b6000612064612e84565b8051909150600080805b838110156120dd57811580156120a257506120a285828151811061209457612094613d7f565b602002602001015133612f5c565b156120ac57600191505b8481815181106120be576120be613d7f565b602002602001015186036120d557600192506120dd565b60010161206e565b508180156120e85750805b61212a5760405162461bcd60e51b8152602060048201526013602482015272556e617574686f72697a65642061636365737360681b6044820152606401610a1e565b5050505050565b60006001600160e01b03198216637965db0b60e01b14806108b657506301ffc9a760e01b6001600160e01b03198316146108b6565b6001600160a01b0383166121c85760405162461bcd60e51b8152602060048201526024808201527f45524332303a20617070726f76652066726f6d20746865207a65726f206164646044820152637265737360e01b6064820152608401610a1e565b6001600160a01b0382166122295760405162461bcd60e51b815260206004820152602260248201527f45524332303a20617070726f766520746f20746865207a65726f206164647265604482015261737360f01b6064820152608401610a1e565b6001600160a01b0383811660008181526001602090815260408083209487168084529482529182902085905590518481527f8c5be1e5ebec7d5bd14f71427d1e84f3dd0314c0f7b2291e5b200ac8c7c3b925910160405180910390a3505050565b6001600160a01b038216600090815260086020526040902060038101548083111561230f5760405162461bcd60e51b815260206004820152602f60248201527f5374726174656779206c6f73732063616e6e6f7420626520677265617465722060448201526e3a3430b71030b63637b1b0ba34b7b760891b6064820152608401610a1e565b600c541561237e576000612341600d54600c548661232d9190613bf9565b6123379190613c10565b8460020154612469565b9050801561237c578083600201600082825461235d9190613bcd565b9250508190555080600c60008282546123769190613bcd565b90915550505b505b828260050160008282546123929190613bba565b92505081905550828260030160008282546123ad9190613bcd565b9250508190555082600d60008282546123c69190613bcd565b909155505050505050565b6001600160a01b0382166000908152600860205260408120600101548190612710906123fd9085613bf9565b6124079190613c10565b9050801561101e57600061241a60025490565b9050600081156124455761242c612c6b565b6124368385613bf9565b6124409190613c10565b612447565b825b601354909150612460906001600160a01b031682612f68565b50509392505050565b6000818310612478578161101e565b5090919050565b6040516001600160a01b03831660248201526044810182905261106690849063a9059cbb60e01b906064015b60408051601f198184030181529190526020810180516001600160e01b03166001600160e01b031990931692909217909152613027565b6040516001600160a01b038085166024830152831660448201526064810182905261251a9085906323b872dd60e01b906084016124ab565b50505050565b600080601154600e54426125349190613bcd565b61253e9190613bf9565b9050670de0b6b3a764000081101561257e57670de0b6b3a7640000601254826125679190613bf9565b6125719190613c10565b601254610ef19190613bcd565b600091505090565b600061259284846119d2565b9050600019811461251a57818110156125ed5760405162461bcd60e51b815260206004820152601d60248201527f45524332303a20696e73756666696369656e7420616c6c6f77616e63650000006044820152606401610a1e565b61251a8484848403612166565b6001600160a01b03831661265e5760405162461bcd60e51b815260206004820152602560248201527f45524332303a207472616e736665722066726f6d20746865207a65726f206164604482015264647265737360d81b6064820152608401610a1e565b6001600160a01b0382166126c05760405162461bcd60e51b815260206004820152602360248201527f45524332303a207472616e7366657220746f20746865207a65726f206164647260448201526265737360e81b6064820152608401610a1e565b6001600160a01b038316600090815260208190526040902054818110156127385760405162461bcd60e51b815260206004820152602660248201527f45524332303a207472616e7366657220616d6f756e7420657863656564732062604482015265616c616e636560d01b6064820152608401610a1e565b6001600160a01b03848116600081815260208181526040808320878703905593871680835291849020805487019055925185815290927fddf252ad1be2c89b69c2b068fc378daa952ba7f163c4a11628f55a4df523b3ef910160405180910390a361251a565b60006127a86130f9565b836000036127e95760405162461bcd60e51b815260206004820152600e60248201526d125b9d985b1a5908185b5bdd5b9d60921b6044820152606401610a1e565b600254846127f5612c6b565b6127ff9190613bf9565b6128099190613c10565b600b5490915080821115612b7157600954600090815b81811015612abd5783851115612abd5760006009828154811061284457612844613d7f565b60009182526020808320909101546001600160a01b0316808352600890915260408220600301549092509081900361287d575050612ab5565b60006128898789613bcd565b6040516370a0823160e01b81523060048201529091506000906001600160a01b037f000000000000000000000000000000000000000000000000000000000000000016906370a0823190602401602060405180830381865afa1580156128f3573d6000803e3d6000fd5b505050506040513d601f19601f820116820180604052508101906129179190613be0565b90506000846001600160a01b0316632e1a7d4d6129348587612469565b6040518263ffffffff1660e01b815260040161295291815260200190565b6020604051808303816000875af1158015612971573d6000803e3d6000fd5b505050506040513d601f19601f820116820180604052508101906129959190613be0565b6040516370a0823160e01b815230600482015290915060009083906001600160a01b037f000000000000000000000000000000000000000000000000000000000000000016906370a0823190602401602060405180830381865afa158015612a01573d6000803e3d6000fd5b505050506040513d601f19601f82011682018060405250810190612a259190613be0565b612a2f9190613bcd565b9050612a3b818b613bba565b99508115612a6557612a4d828c613bcd565b9a50612a59828a613bba565b9850612a65868361228a565b6001600160a01b03861660009081526008602052604081206003018054839290612a90908490613bcd565b9250508190555080600d6000828254612aa99190613bcd565b90915550505050505050505b60010161281f565b50600b83905582841115612afa57829350612ad6612c6b565b600254612ae38487613bba565b612aed9190613bf9565b612af79190613c10565b96505b60105461271090612b0b8487613bba565b612b159190613bf9565b612b1f9190613c10565b821115612b6e5760405162461bcd60e51b815260206004820152601e60248201527f5769746864726177206c6f7373206578636565647320736c69707061676500006044820152606401610a1e565b50505b612b7b8386613152565b81600b6000828254612b8d9190613bcd565b90915550612bc790506001600160a01b037f000000000000000000000000000000000000000000000000000000000000000016858461247f565b60408051838152602081018790526001600160a01b03808616929087169133917ffbde797d201c681b91056529119e0b02407c7bb96a4a2c75c01fc9667232c8db910160405180910390a45061101e6001600755565b6116238133613284565b612c3182826132dd565b60008281526006602052604090206110669082613363565b612c538282613378565b600082815260066020526040902061106690826133df565b6000612c75612520565b612c7d611889565b6110ef9190613bcd565b600061101e83836133f4565b6000612c9d6130f9565b600f5460ff1615612d015760405162461bcd60e51b815260206004820152602860248201527f43616e6e6f74206465706f73697420647572696e6720656d657267656e63792060448201526739b43aba3237bbb760c11b6064820152608401610a1e565b82600003612d425760405162461bcd60e51b815260206004820152600e60248201526d125b9d985b1a5908185b5bdd5b9d60921b6044820152606401610a1e565b600a5483612d4e611889565b612d589190613bba565b1115612d965760405162461bcd60e51b815260206004820152600d60248201526c15985d5b1d081a5cc8199d5b1b609a1b6044820152606401610a1e565b6000612da160025490565b905080600003612db357839150612dd2565b612dbb612c6b565b612dc58286613bf9565b612dcf9190613c10565b91505b612ddc8383612f68565b83600b6000828254612dee9190613bba565b90915550612e2990506001600160a01b037f0000000000000000000000000000000000000000000000000000000000000000163330876124e2565b60408051858152602081018490526001600160a01b0385169133917fdcbc1c05240f31ff3ad067ef1ee35ce4997762752e3a095284754544f4c709d7910160405180910390a3506108b66001600755565b60006108b6825490565b60408051600480825260a0820190925260609160009190602082016080803683370190505090506000801b81600081518110612ec257612ec2613d7f565b602002602001018181525050600080516020613f1283398151915281600181518110612ef057612ef0613d7f565b602002602001018181525050600080516020613ef283398151915281600281518110612f1e57612f1e613d7f565b602002602001018181525050600080516020613f3283398151915281600381518110612f4c57612f4c613d7f565b6020908102919091010152919050565b600061101e838361163e565b6001600160a01b038216612fbe5760405162461bcd60e51b815260206004820152601f60248201527f45524332303a206d696e7420746f20746865207a65726f2061646472657373006044820152606401610a1e565b8060026000828254612fd09190613bba565b90915550506001600160a01b038216600081815260208181526040808320805486019055518481527fddf252ad1be2c89b69c2b068fc378daa952ba7f163c4a11628f55a4df523b3ef910160405180910390a35050565b600061307c826040518060400160405280602081526020017f5361666545524332303a206c6f772d6c6576656c2063616c6c206661696c6564815250856001600160a01b031661341e9092919063ffffffff16565b805190915015611066578080602001905181019061309a9190613e16565b6110665760405162461bcd60e51b815260206004820152602a60248201527f5361666545524332303a204552433230206f7065726174696f6e20646964206e6044820152691bdd081cdd58d8d9595960b21b6064820152608401610a1e565b60026007540361314b5760405162461bcd60e51b815260206004820152601f60248201527f5265656e7472616e637947756172643a207265656e7472616e742063616c6c006044820152606401610a1e565b6002600755565b6001600160a01b0382166131b25760405162461bcd60e51b815260206004820152602160248201527f45524332303a206275726e2066726f6d20746865207a65726f206164647265736044820152607360f81b6064820152608401610a1e565b6001600160a01b038216600090815260208190526040902054818110156132265760405162461bcd60e51b815260206004820152602260248201527f45524332303a206275726e20616d6f756e7420657863656564732062616c616e604482015261636560f01b6064820152608401610a1e565b6001600160a01b0383166000818152602081815260408083208686039055600280548790039055518581529192917fddf252ad1be2c89b69c2b068fc378daa952ba7f163c4a11628f55a4df523b3ef910160405180910390a3505050565b61328e828261163e565b61103d5761329b81613435565b6132a6836020613447565b6040516020016132b7929190613e33565b60408051601f198184030181529082905262461bcd60e51b8252610a1e91600401613927565b6132e7828261163e565b61103d5760008281526005602090815260408083206001600160a01b03851684529091529020805460ff1916600117905561331f3390565b6001600160a01b0316816001600160a01b0316837f2f8788117e7eff1d82e926ec794901d17c78024a50270940304540a733656f0d60405160405180910390a45050565b600061101e836001600160a01b0384166135e3565b613382828261163e565b1561103d5760008281526005602090815260408083206001600160a01b0385168085529252808320805460ff1916905551339285917ff6391f5c32d9c69d2a47ea670b442974b53935d1edc7fd64eb21e047a839171b9190a45050565b600061101e836001600160a01b038416613632565b600082600001828154811061340b5761340b613d7f565b9060005260206000200154905092915050565b606061342d8484600085613725565b949350505050565b60606108b66001600160a01b03831660145b60606000613456836002613bf9565b613461906002613bba565b67ffffffffffffffff81111561347957613479613e00565b6040519080825280601f01601f1916602001820160405280156134a3576020820181803683370190505b509050600360fc1b816000815181106134be576134be613d7f565b60200101906001600160f81b031916908160001a905350600f60fb1b816001815181106134ed576134ed613d7f565b60200101906001600160f81b031916908160001a9053506000613511846002613bf9565b61351c906001613bba565b90505b6001811115613594576f181899199a1a9b1b9c1cb0b131b232b360811b85600f166010811061355057613550613d7f565b1a60f81b82828151811061356657613566613d7f565b60200101906001600160f81b031916908160001a90535060049490941c9361358d81613ea8565b905061351f565b50831561101e5760405162461bcd60e51b815260206004820181905260248201527f537472696e67733a20686578206c656e67746820696e73756666696369656e746044820152606401610a1e565b600081815260018301602052604081205461362a575081546001818101845560008481526020808220909301849055845484825282860190935260409020919091556108b6565b5060006108b6565b6000818152600183016020526040812054801561371b576000613656600183613bcd565b855490915060009061366a90600190613bcd565b90508181146136cf57600086600001828154811061368a5761368a613d7f565b90600052602060002001549050808760000184815481106136ad576136ad613d7f565b6000918252602080832090910192909255918252600188019052604090208390555b85548690806136e0576136e0613ebf565b6001900381819060005260206000200160009055905585600101600086815260200190815260200160002060009055600193505050506108b6565b60009150506108b6565b6060824710156137865760405162461bcd60e51b815260206004820152602660248201527f416464726573733a20696e73756666696369656e742062616c616e636520666f6044820152651c8818d85b1b60d21b6064820152608401610a1e565b600080866001600160a01b031685876040516137a29190613ed5565b60006040518083038185875af1925050503d80600081146137df576040519150601f19603f3d011682016040523d82523d6000602084013e6137e4565b606091505b5091509150610fea878383876060831561385f578251600003613858576001600160a01b0385163b6138585760405162461bcd60e51b815260206004820152601d60248201527f416464726573733a2063616c6c20746f206e6f6e2d636f6e74726163740000006044820152606401610a1e565b508161342d565b61342d83838151156138745781518083602001fd5b8060405162461bcd60e51b8152600401610a1e9190613927565b508054600082559060005260206000209081019061162391905b808211156138bc57600081556001016138a8565b5090565b6000602082840312156138d257600080fd5b5035919050565b6000602082840312156138eb57600080fd5b81356001600160e01b03198116811461101e57600080fd5b60005b8381101561391e578181015183820152602001613906565b50506000910152565b6020815260008251806020840152613946816040850160208701613903565b601f01601f19169190910160400192915050565b6001600160a01b038116811461162357600080fd5b6000806040838503121561398257600080fd5b823561398d8161395a565b946020939093013593505050565b600080604083850312156139ae57600080fd5b50508035926020909101359150565b801515811461162357600080fd5b6000602082840312156139dd57600080fd5b813561101e816139bd565b6000806000606084860312156139fd57600080fd5b8335613a088161395a565b92506020840135613a188161395a565b929592945050506040919091013590565b60008060408385031215613a3c57600080fd5b823591506020830135613a4e8161395a565b809150509250929050565b600060208284031215613a6b57600080fd5b813561101e8161395a565b60008060208385031215613a8957600080fd5b823567ffffffffffffffff80821115613aa157600080fd5b818501915085601f830112613ab557600080fd5b813581811115613ac457600080fd5b8660208260051b8501011115613ad957600080fd5b60209290920196919550909350505050565b60008060408385031215613afe57600080fd5b8235613b098161395a565b91506020830135613a4e8161395a565b600080600060608486031215613b2e57600080fd5b8335613b398161395a565b95602085013595506040909401359392505050565b600181811c90821680613b6257607f821691505b602082108103613b8257634e487b7160e01b600052602260045260246000fd5b50919050565b634e487b7160e01b600052601160045260246000fd5b6000600160ff1b8201613bb357613bb3613b88565b5060000390565b808201808211156108b6576108b6613b88565b818103818111156108b6576108b6613b88565b600060208284031215613bf257600080fd5b5051919050565b80820281158282048414176108b6576108b6613b88565b600082613c2d57634e487b7160e01b600052601260045260246000fd5b500490565b600060208284031215613c4457600080fd5b815160ff8116811461101e57600080fd5b60208082526018908201527f496e76616c696420737472617465677920616464726573730000000000000000604082015260600190565b600181815b80851115613cc7578160001904821115613cad57613cad613b88565b80851615613cba57918102915b93841c9390800290613c91565b509250929050565b600082613cde575060016108b6565b81613ceb575060006108b6565b8160018114613d015760028114613d0b57613d27565b60019150506108b6565b60ff841115613d1c57613d1c613b88565b50506001821b6108b6565b5060208310610133831016604e8410600b8410161715613d4a575081810a6108b6565b613d548383613c8c565b8060001904821115613d6857613d68613b88565b029392505050565b600061101e60ff841683613ccf565b634e487b7160e01b600052603260045260246000fd5b60208082528181018390526000908460408401835b86811015613dd8578235613dbd8161395a565b6001600160a01b031682529183019190830190600101613daa565b509695505050505050565b600060208284031215613df557600080fd5b815161101e8161395a565b634e487b7160e01b600052604160045260246000fd5b600060208284031215613e2857600080fd5b815161101e816139bd565b7f416363657373436f6e74726f6c3a206163636f756e7420000000000000000000815260008351613e6b816017850160208801613903565b7001034b99036b4b9b9b4b733903937b6329607d1b6017918401918201528351613e9c816028840160208801613903565b01602801949350505050565b600081613eb757613eb7613b88565b506000190190565b634e487b7160e01b600052603160045260246000fd5b60008251613ee7818460208701613903565b919091019291505056fe8b5b16d04624687fcf0d0228f19993c9157c1ed07b41d8d430fd9100eb099fe8df8b4c520ffe197c5343c6f5aec59570151ef9a492f2c624fd45ddde6135ec42b17d0a42cc710456bf9c3efb785dcd0cb93a0ac358113307b5c64b285b516b5ca26469706673582212205e57467a5fbc998e2ab0be35dcc89129c04a6a3f48a75b37a6cc8f8806198c1164736f6c63430008130033",
    "linkReferences": {}
  },
  "methodIdentifiers": {
    "ADMIN()": "2a0acc6a",
    "DEFAULT_ADMIN_ROLE()": "a217fddf",
    "DEGRADATION_COEFFICIENT()": "d250f088",
    "GUARDIAN()": "724c184c",
    "PERCENT_DIVISOR()": "4870dd9a",
    "STRATEGIST()": "9cfdede3",
    "addStrategy(address,uint256,uint256)": "fa34d611",
    "allowance(address,address)": "dd62ed3e",
    "approve(address,uint256)": "095ea7b3",
    "availableCapital()": "199cb7d8",
    "balance()": "b69ef8a8",
    "balanceOf(address)": "70a08231",
    "constructionTime()": "f06c5610",
    "decimals()": "313ce567",
    "decreaseAllowance(address,uint256)": "a457c2d7",
    "deposit(uint256)": "b6b55f25",
    "depositAll()": "de5f6268",
    "emergencyShutdown()": "3403c2fc",
    "getPricePerFullShare()": "77c7b8fc",
    "getRoleAdmin(bytes32)": "248a9ca3",
    "getRoleMember(bytes32,uint256)": "9010d07c",
    "getRoleMemberCount(bytes32)": "ca15c873",
    "grantRole(bytes32,address)": "2f2ff15d",
    "hasRole(bytes32,address)": "91d14854",
    "inCaseTokensGetStuck(address)": "def68a9c",
    "increaseAllowance(address,uint256)": "39509351",
    "lastReport()": "c3535b52",
    "lockedProfit()": "44b81396",
    "lockedProfitDegradation()": "42232716",
    "name()": "06fdde03",
    "removeTvlCap()": "29b9d694",
    "renounceRole(bytes32,address)": "36568abe",
    "report(int256,uint256)": "0f3d249d",
    "revokeRole(bytes32,address)": "d547741f",
    "revokeStrategy(address)": "bb994d48",
    "setEmergencyShutdown(bool)": "14c64402",
    "setLockedProfitDegradation(uint256)": "7a550365",
    "setWithdrawalQueue(address[])": "ac579b77",
    "strategies(address)": "39ebf823",
    "supportsInterface(bytes4)": "01ffc9a7",
    "symbol()": "95d89b41",
    "token()": "fc0c546a",
    "totalAllocBPS()": "6f9c94a8",
    "totalAllocated()": "45f7f249",
    "totalIdle()": "9aa7df94",
    "totalSupply()": "18160ddd",
    "transfer(address,uint256)": "a9059cbb",
    "transferFrom(address,address,uint256)": "23b872dd",
    "treasury()": "61d027b3",
    "tvlCap()": "3f23fa1a",
    "updateStrategyAllocBPS(address,uint256)": "5f3d3a0e",
    "updateStrategyFeeBPS(address,uint256)": "7d6205be",
    "updateTreasury(address)": "7f51bb1f",
    "updateTvlCap(uint256)": "00272d81",
    "updateWithdrawMaxLoss(uint256)": "462f82f4",
    "withdraw(uint256)": "2e1a7d4d",
    "withdrawAll()": "853828b6",
    "withdrawMaxLoss()": "483b6031",
    "withdrawalQueue(uint256)": "c822adda"
  },
  "id": 42
}